:100000000C9461000C9473000C9473000C947300B6
:100010000C9473000C9473000C9473000C94730094
:100020000C9473000C9473000C9473000C94730084
:100030000C9473000C9473000C9473000C94730074
:100040000C949E010C9473000C9473000C94730038
:100050000C9473000C9473000C9473000C94730054
:100060000C9473000C94730000000000240027001F
:100070002A0000000000250028002B0000000000DE
:1000800023002600290004040404040404040202DA
:100090000202020203030303030301020408102007
:1000A0004080010204081020010204081020000012
:1000B0000008000201000003040700000000000027
:1000C000000011241FBECFEFD8E0DEBFCDBF21E07E
:1000D000A0E0B1E001C01D92AD31B207E1F70E948E
:1000E000E8010C949E030C940000833081F028F406
:1000F000813099F08230A9F008958730A9F08830D6
:10010000C9F08430B1F4809180008F7D03C080916C
:1001100080008F7780938000089584B58F7784BDA9
:10012000089584B58F7DFBCF8091B0008F77809349
:10013000B00008958091B0008F7DF9CFCF93DF9309
:10014000282F30E0F901E255FF4F8491F901E6567E
:10015000FF4FD491F901EA57FF4FC491CC23A1F08E
:1001600081110E947500EC2FF0E0EE0FFF1FE458A4
:10017000FF4FA591B491EC91ED2381E090E009F45B
:1001800080E0DF91CF91089580E090E0FACF1F9357
:10019000CF93DF93282F30E0F901E255FF4F849190
:1001A000F901E656FF4FD491F901EA57FF4FC49188
:1001B000CC23A9F0162F81110E947500EC2FF0E0DE
:1001C000EE0FFF1FEE58FF4FA591B4918FB7F89433
:1001D000EC91111108C0D095DE23DC938FBFDF9125
:1001E000CF911F910895DE2BF8CFCF93DF9390E04E
:1001F000FC01E656FF4F24918A579F4FFC018491E2
:100200008823D1F090E0880F991FFC01E859FF4F37
:10021000A591B491FC01EE58FF4FC591D4916111A5
:100220000EC09FB7F8948C91E22FE0958E238C93AB
:100230002881E223E8839FBFDF91CF9108958FB794
:10024000F894EC91E22BEC938FBFF6CF3FB7F89484
:100250008091050190910601A0910701B0910801DC
:1002600026B5A89B05C02F3F19F00196A11DB11D11
:100270003FBFBA2FA92F982F8827BC01CD01620F4D
:10028000711D811D911D42E0660F771F881F991F08
:100290004A95D1F708958F929F92AF92BF92CF92D5
:1002A000DF92EF92FF92CF93DF937B01EA010E94EE
:1002B0009E0090931C0180931B01892B41F4809137
:1002C000190190911A01019711F4F982E882809145
:1002D0001B0190911C0190931A01809319010E94B7
:1002E00026014B015C0184E1C82ED12CE12CF12CBC
:1002F0000E942601681979098A099B09683E7340A2
:1003000081059105A8F321E0C21AD108E108F1089E
:1003100088EE880E83E0981EA11CB11CC114D10484
:10032000E104F10429F7DF91CF91FF90EF90DF9086
:10033000CF90BF90AF909F908F9008951F920F9293
:100340000FB60F9211242F933F938F939F93AF93E8
:10035000BF938091010190910201A0910301B0919E
:1003600004013091000123E0230F2D3758F5019649
:10037000A11DB11D20930001809301019093020102
:10038000A0930301B09304018091050190910601AF
:10039000A0910701B09108010196A11DB11D8093A4
:1003A000050190930601A0930701B0930801BF9146
:1003B000AF919F918F913F912F910F900FBE0F9012
:1003C0001F90189526E8230F0296A11DB11DD2CFCC
:1003D000789484B5826084BD84B5816084BD85B520
:1003E000826085BD85B5816085BD80916E0081602C
:1003F00080936E00109281008091810082608093D2
:1004000081008091810081608093810080918000D3
:100410008160809380008091B10084608093B100FE
:100420008091B00081608093B00080917A008460F8
:1004300080937A0080917A00826080937A00809124
:100440007A00816080937A0080917A00806880933E
:100450007A001092C10061E08BE00E94F50061E03B
:100460008AE00E94F50061E089E00E94F50060E00A
:1004700087E00E94F50060E086E00E94F50060E001
:1004800085E00E94F50060E08FE00E94F50060E0EA
:1004900080E10E94F50060E081E10E94F50060E0EB
:1004A0008EE00E94F50060E08AE00E94C70060E0F4
:1004B00089E00E94C70060E08BE00E94C700C0E0B6
:1004C000D0E047E151E061E070E08FE090E00E9411
:1004D0004B0180911701909118018130910599F598
:1004E0002091150130911601232B69F5109214010A
:1004F000109213011092120110921101109210012A
:1005000010920F01909316018093150161E08AE02B
:100510000E94C70060E089E00E94C70061E08BE0B4
:100520000E94C70086E00E949E00892BD9F360E0FC
:100530008BE00E94C70060E08AE00E94C700109232
:100540001801109217014DE051E062E070E080E187
:1005500090E00E944B0180910D0190910E01029755
:10056000E9F58091130190911401892BB9F58091DF
:100570001501909116018230910581F101969093B9
:100580001601809315011092120110921101109220
:10059000100110920F0181E090E09093140180937C
:1005A000130161E08AE00E94C70060E089E00E94D8
:1005B000C70061E08BE00E94C70085E00E949E00BA
:1005C000892BD9F360E08BE00E94C70060E08AE0ED
:1005D0000E94C70010920E0110920D014BE051E0F5
:1005E00063E070E081E190E00E944B0180910B019B
:1005F00090910C010397A9F580911101909112013E
:10060000892B79F5109216011092150110921401A0
:10061000109213011092100110920F0181E090E0EE
:10062000909312018093110160E08AE00E94C7005C
:1006300061E089E00E94C70061E08BE00E94C70092
:1006400086E00E949E00892BD9F360E08BE00E9437
:10065000C70060E089E00E94C70010920C01109270
:100660000B0149E051E064E070E08EE090E00E9410
:100670004B018091090190910A010497E9F580915D
:100680000F0190911001892BB9F580911101909182
:1006900012018230910581F110921601109215011C
:1006A00010921401109213010196909312018093FD
:1006B000110181E090E09093100180930F0160E0C0
:1006C0008AE00E94C70061E089E00E94C70061E003
:1006D0008BE00E94C70087E00E949E00892BD9F31F
:1006E00060E08BE00E94C70060E089E00E94C700E4
:1006F00010920A011092090160E08AE00E94C7008E
:1007000060E089E00E94C70060E08BE00E94C700C3
:10071000109218011092170110920E0110920D0103
:1007200010920C0110920B0110920A011092090113
:10073000209709F4C6CE0E940000C3CEF894FFCFE4
:00000001FF
